:020000040800F2
:1000000000060020E1010008F90E0008790E000842
:10001000D10E0008790E0008A50E0008E3010008C3
:10002000E3010008E3010008E3010008B927000824
:10003000E3010008E3010008E3010008E301000810
:10004000E3010008E3010008E3010008E301000800
:10005000E3010008E3010008553800088138000872
:10006000AD380008D938000805390008E301000858
:10007000E3010008E3010008E3010008E3010008D0
:10008000E3010008E3010008E3010008E3010008C0
:10009000E3010008E3010008E3010008313900082A
:1000A000E3010008E3010008E3010008E3010008A0
:1000B000C9360008E3010008E3010008E301000875
:1000C000E3010008E3010008E3010008E301000880
:1000D000E3010008510F0008E3010008E3010008F4
:1000E00099390008E3010008E3010008E301000872
:1000F000E3010008E3010008E3010008E301000850
:10010000E3010008E3010008E3010008E30100083F
:10011000E3010008E3010008E3010008E30100082F
:10012000E3010008E3010008E3010008E30100081F
:10013000E3010008E3010008E3010008E30100080F
:10014000E3010008E3010008E3010008F12E0008C4
:10015000E3010008E3010008E3010008E3010008EF
:10016000E3010008E3010008E3010008E3010008DF
:10017000E3010008E3010008E3010008E3010008CF
:10018000E3010008E3010008E3010008E3010008BF
:10019000E3010008E3010008E3010008E3010008AF
:1001A000E3010008E3010008E3010008E30100089F
:1001B000E3010008E3010008E3010008E30100088F
:1001C000E3010008E3010008E3010008E30100087F
:1001D000E3010008E3010008E3010008E30100086F
:1001E00002E000F000F8FEE772B63A4880F30888B3
:1001F000394880F3098839484EF60851CEF200019B
:10020000086040F20000CCF200004EF63471CEF2ED
:1002100000010860BFF34F8FBFF36F8F40F2000003
:10022000C0F2F0004EF68851CEF200010860BFF334
:100230004F8FBFF36F8F4FF00000E1EE100A4EF6C4
:100240003C71CEF200010860062080F31488BFF3F1
:100250006F8F02F031FB02F00DFB03F099F94FF0C4
:1002600055301F491B4A91423CBF41F8040BFAE745
:100270001C49194A91423CBF41F8040BFAE71A495C
:100280001A4A1B4B9A423EBF51F8040B42F8040B2A
:10029000F8E700201749184A91423CBF41F8040B87
:1002A000FAE702F0EBFA03F0C7F9144C144DAC4234
:1002B00003DA54F8041B8847F9E700F041F8114CC1
:1002C000114DAC4203DA54F8041B8847F9E702F0F9
:1002D000D3BA000000060020002200200000000821
:1002E0000000002000060020083E00080022002038
:1002F000402200204022002020300020E0010008A1
:10030000E0010008E0010008E00100082DE9F04FDD
:100310002DED108AC1F80CD0C3689D46BDEC108A43
:10032000BDE8F08F002383F311882846A047002002
:1003300001F04EFEFEE701F0C9FD00DFFEE7000020
:1003400038B502F009FA054602F02CFA0446D8B98D
:100350000F4B9D421AD001339D4218BF044641F213
:10036000883504BF01240025002002F0FFF90CB1FC
:1003700000F056F800F028FD00F0A2FB284600F03F
:10038000A7F800F04DF8F9E70025EDE70546EBE7A3
:10039000010007B008B500F05FFBA0F12003584250
:1003A000584108BD07B541F21203022101A8ADF87A
:1003B000043000F06FFB03B05DF804FB10B52023A0
:1003C00083F311881248C3680BB101F087FE114A0C
:1003D0000F4800234FF47A7101F044FE002383F3A9
:1003E00011880D4C236813B12368013B23606368B7
:1003F00013B16368013B6360084B1B7833B96368D2
:1004000023B9022000F052FC3223636010BD00BF0C
:1004100040220020BD0300085C230020542200205D
:10042000254B264A10B51C461968013142D00433C9
:100430009342F9D16268224B9A423BD9214B9B6887
:1004400003F1006303F580339A4233D2002000F0B9
:1004500051FB1D4B0220187000F018FC1B4B1A6C4E
:1004600000221A64196E1A66196E596C5A64596E14
:100470005A665A6E5A6942F080025A615A6922F0ED
:1004800080025A615A691A6942F000521A611A6967
:1004900022F000521A611B6972B64FF0E02320214E
:1004A000C3F8084DD4E9003281F311889D4683F3E7
:1004B0000888104710BD00BF000001082000010897
:1004C000FFFF0008002200205422002000380240D4
:1004D0002DE9F04F93B0A94B00902022FF210AA8EC
:1004E0009D6800F01BFCA64A1378A3B9A54801211A
:1004F000C3601170202383F31188C3680BB101F02E
:10050000EDFDA14A9F4800234FF47A7101F0AAFD46
:10051000002383F31188009B9C4A03B113609C491C
:10052000009C00230B70536098469B461E469A46DB
:10053000012000F0ABFB24B1944B1B68002B00F0B2
:100540001682002000F088FA0390039B002BF2DB58
:10055000012000F08BFB039B213B162BE8D801A266
:1005600052F823F0C1050008E90500087D060008DF
:1005700031050008310500083105000811070008A1
:10058000E3080008FD0700085F0800088708000866
:10059000AD08000831050008BF0800083105000853
:1005A00031090008610600083105000875090008D6
:1005B000CD05000861060008310500085F08000845
:1005C0000220FFF7E7FE002840F0FB81009B02219C
:1005D000B8F1000F08BF1C4605A841F21233ADF870
:1005E000143000F057FAA3E74FF47A7000F034FAB1
:1005F000071EEBDB0220FFF7CDFE0028E6D0013F0F
:10060000052F00F2E081DFE807F0030A0D10133632
:1006100005230593042105A800F03CFA17E057488C
:100620000421F9E75B480421F6E75B480421F3E77E
:100630004FF01C09484600F05FFA09F104090590E3
:10064000042105A800F026FAB9F12C0FF2D10120FF
:1006500000FA07F747EA0B0B5FFA8BFB4FF0000A33
:1006600000F0A8FB26B10BF00B030B2B08BF0024F6
:10067000FFF798FE5CE749480421CDE7002EA5D09E
:100680000BF00B030B2BA1D10220FFF783FE0746D3
:1006900000289BD001203E4E00F02CFA0220307042
:1006A00000F0F4FA4FF000085FFA88F9484600F0CD
:1006B00031FA044690B1484600F03CFA08F10108CE
:1006C0000028F1D1B846044641F21213022105A8D0
:1006D000ADF814303E4600F0DDF929E70123022091
:1006E000337000F0C3FA2546244B9B68AB4207D910
:1006F000284600F001FA013040F068810435F3E744
:10070000234B00251D70214BB8465D603E46A7E790
:10071000002E3FF45BAF0BF00B030B2B7FF456AFB7
:100720001B4B0220187000F0B1FA322000F094F94F
:10073000B0F10009FFF64AAF19F003077FF446AFA6
:100740000E4A926809EB050393423FF63FAFB9F5B5
:10075000807F3FF73BAF124B0193B94522DD4FF449
:100760007A7000F079F90390039A002AFFF62EAF11
:10077000019B039A03F8012B0137EDE700220020CB
:100780005823002040220020BD0300085C230020E5
:100790005422002004220020082200200C220020E5
:1007A00058220020C820FFF7F5FD074600283FF437
:1007B0000DAF1F2D11D8C5F120024A450AAB25F017
:1007C000030028BF4A4683490192184400F080FA8A
:1007D000019A8048FF2100F0A1FA4FEAA9037D4960
:1007E0000193C9F38702284600F0A0FA06460028C4
:1007F0003FF46AAF019B05EB830531E70220FFF769
:10080000C9FD00283FF4E2AE00F0BEF900283FF435
:10081000DDAE0027B946704B9B68BB4218D91F2F2D
:1008200011D80A9B01330ED027F0030312AA1344F8
:1008300053F8203C05934846042205A900F05EFBCE
:1008400004378146E7E7384600F056F90590F2E7AD
:10085000CDF81490042105A800F01CF900E700234E
:10086000642104A8049300F00BF900287FF4AEAED5
:100870000220FFF78FFD00283FF4A8AE049800F097
:100880006BF90590E6E70023642104A8049300F0C7
:10089000F7F800287FF49AAE0220FFF77BFD0028CE
:1008A0003FF494AE049800F067F9EAE70220FFF7FE
:1008B00071FD00283FF48AAE00F076F9E1E70220EE
:1008C000FFF768FD00283FF481AE05A9142000F071
:1008D00071F904210746049004A800F0DBF83946BA
:1008E000B9E7322000F0B8F8071EFFF66FAEBB077D
:1008F0007FF46CAE384A926807EB0A0393423FF6E6
:1009000065AE0220FFF746FD00283FF45FAE27F0FA
:1009100003075744BA453FF4A3AE504600F0ECF845
:100920000421059005A800F0B5F80AF1040AF1E7E2
:100930004FF47A70FFF72EFD00283FF447AE00F029
:1009400023F9002844D00A9B01330BD008220AA9BE
:10095000002000F0EBF900283AD02022FF210AA85D
:1009600000F0DCF9FFF71EFD1C4801F037FB13B067
:10097000BDE8F08F002E3FF429AE0BF00B030B2BDC
:100980007FF424AE0023642105A8059300F078F8D5
:10099000074600287FF41AAE0220FFF7FBFC8146D1
:1009A00000283FF413AEFFF7FDFC41F2883001F060
:1009B00015FB059800F040FA4E4600F0FBF93C4666
:1009C000B6E506464CE64FF0000AFFE5B8467BE682
:1009D000374679E65822002000220020A086010038
:1009E000F7B5194E0C464FF47A7102FB01F396F9F4
:1009F00000200546501C0BD114480193026829467B
:100A0000176A2246B8478442019B03D1002310E0B5
:100A1000002AF1D096F90020511C01D0012A0DD1F5
:100A20000B4802682946166A2246B047844205D11F
:100A30000123084A0120137003B0F0BD4FF4FA708F
:100A400001F0CCFA0020F7E710220020C827002090
:100A5000A8230020A423002007B50023024601217B
:100A60000DF107008DF80730FFF7BAFF20B19DF8B0
:100A7000070003B05DF804FB4FF0FF30F9E700001A
:100A80000A4608B50421FFF7ABFF80F00100C0B2B1
:100A9000404208BD30B4074B0A461978064B53F85C
:100AA00021402368DD69054B0146AC46204630BC39
:100AB000604700BFA4230020F83A0008A086010088
:100AC00070B501F03BFD094E094D308000242868C7
:100AD0003388834208D901F02BFD2B68044401338D
:100AE000B4F5803F2B60F2D370BD00BFA623002079
:100AF0006423002001F0E4BD00F1006000F58030C7
:100B00000068704700F10060920000F5803001F04D
:100B100063BD0000054B1A68054B1B889B1A834276
:100B200002D9104401F004BD002070476423002066
:100B3000A623002038B5074D04462868204401F05C
:100B4000FFFC28B928682044BDE8384001F010BDFA
:100B500038BD00BF6423002010F003030AD1B0F5B4
:100B6000047F05D200F10050A0F51040D0F8003805
:100B7000184670470023FBE700F10050A0F5104035
:100B8000D0F8100A70470000064991F8243033B1BC
:100B90000023086A81F824300822FFF7B3BF012040
:100BA000704700BF68230020014B1868704700BFE2
:100BB000002004E070B52A4B1B68C3F30B02044607
:100BC0001B0C62B140F21340824230D040F2194017
:100BD00082422ED040F2214082422CD10322214D6C
:100BE0000C2000FB0252556842F20102934224D0CD
:100BF000B3F5805F23D041F20102934221D041F24C
:100C0000030293421FD041F20702934214BF3F23D5
:100C10003123013C0C44013D0A46A24215D215F98C
:100C2000016F501C9EB100F8016C0246F5E70122ED
:100C3000D5E70222D3E70C4DD6E73323E9E741237A
:100C4000E7E75A23E5E75923E3E7104605E02C25BB
:100C50008442157001D9901C5370401A70BD00BFBA
:100C6000002004E0C83A00089C3A0008022804D199
:100C7000054B4FF080429A6170470128FCD1024B2E
:100C80004FF00052F7E700BF00000240022804D1F5
:100C9000054B4FF480429A6170470128FCD1024B0A
:100CA0004FF40052F7E700BF00000240022805D1D0
:100CB000064A536983F48043536170470128FCD18D
:100CC000024A536983F40053F6E700BF0000024074
:100CD00010B50023934203D0CC5CC4540133F9E730
:100CE00010BD000010B5013810F9013F3BB191F97A
:100CF00000409C4203D11AB10131013AF4E71AB124
:100D000091F90020981A10BD1046FCE703460246F0
:100D1000D01A12F9011B0029FAD170470244034688
:100D2000934202D003F8011BFAE770472DE9F8431C
:100D30001F4D144695F824200746884652BBDFF81D
:100D400070909CB395F824302BB92022FF2148469F
:100D50002F62FFF7E3FF95F82400C0F10802A242DA
:100D600028BF2246D6B24146920005EB8000FFF72D
:100D7000AFFF95F82430A41B1E44F6B2082E17448A
:100D80009044E4B285F82460DBD1FFF7FDFE002833
:100D9000D7D108E02B6A03EB82038342CFD0FFF761
:100DA000F3FE0028CBD10020BDE8F8830120FBE74B
:100DB00068230020024B1A78024B1A70704700BF5C
:100DC000A42300201022002038B5154C154D2046D4
:100DD00000F01AFC2946204600F042FC2D6812481B
:100DE0006A6DD2F8043843F00203C2F8043801F007
:100DF000F5F80E49284600F039FD6A6D0C48D2F826
:100E000004380C4923F00203C2F80438A0424FF41E
:100E1000E1330B6003D0BDE8384000F055BB38BD6E
:100E2000C8270020003C000840420F00083C000892
:100E3000A82300209023002038B50B4B1A780B4BC9
:100E400053F822500A4B9D4204460CD0094B002116
:100E500018461422FFF762FF046001462846BDE8E9
:100E6000384000F031BB38BDA4230020F83A000818
:100E7000C82700209023002000B59BB0EFF3098124
:100E800068226846FFF724FFEFF30583044B9A6B53
:100E9000DA6A9A6A9A6A9A6A9A6A9A6A9B6AFEE710
:100EA00000ED00E000B59BB0EFF3098168226846D1
:100EB000FFF70EFFEFF30583044B9A6B9A6A9A6A69
:100EC0009A6A9A6A9A6A9B6AFEE700BF00ED00E0A0
:100ED00000B59BB0EFF3098168226846FFF7F8FE82
:100EE000EFF30583034B5A6B9A6A9A6A9A6A9A6A75
:100EF0009B6AFEE700ED00E0FEE7000030B5094D1B
:100F00000A4491420DD011F8013B5840082340F3A8
:100F10000004013B2C4013F0FF0384EA5000F6D19B
:100F2000EFE730BD2083B8ED024AD36843F0C00339
:100F3000D360704700100140044B5A6810439A6810
:100F400058600AB1181D1047704700BFA823002041
:100F50002DE9F0413C4ED6F85C52EF682B68DA057B
:100F60009CB20CD5202383F311884FF40070FFF757
:100F7000E3FF6FF480732B60002383F31188202339
:100F800083F31188DFF8C08014F02F0339D183F385
:100F90001188380613D5210611D5202383F3118833
:100FA0002A4800F0EFF900284CDA0820FFF7C4FFC8
:100FB0004FF67F733B40EB60002383F311887A0682
:100FC00015D5630613D5202383F31188D6E913239F
:100FD0009A4209D1336C3BB127F040073F041020FF
:100FE0003F0CFFF7A9FFEF60002383F31188D6F8C9
:100FF0006422D3680BB110699847BDE8F04101F055
:101000000FBC230712D014F0080F0CBF0020802063
:10101000E10748BF40F02000A20748BF40F0400071
:10102000630748BF40F48070FFF786FFA4066B6833
:1010300005D596F860124046194000F053FA2C6826
:10104000A4B2A1E76860B7E7A8230020E02300204E
:1010500010B5054C054A0021204600F013FA044B58
:10106000C4F85C3210BD00BFA8230020290F00087F
:101070000010014038B52A4C037C002918BF0C46EB
:10108000012B0546C0F8644210D1264B98420DD181
:10109000254B5A6C42F010025A645A6E42F010020C
:1010A0005A660B2125205B6E00F046F8D5F85C22CD
:1010B0001E4923688A424FEA530003D001F580613C
:1010C0008A422AD11A490144B4F90400B1FBF3F36E
:1010D0000028BEBF23F0070003F0070343EA4003E4
:1010E000A1889360E38843F040031361238943F0B0
:1010F0000103536141F4045343F02C03D36001F422
:10110000A05100231360B1F5806F136853680CBFC2
:101110007F23FF2385F8603238BD0649D3E700BF3F
:10112000003B0008A82300200038024000100140C6
:1011300000BD010580DE800200F1604303F56143DC
:101140000901C9B283F80013012200F01F039A407D
:1011500043099B0003F1604303F56143C3F8802119
:101160001A607047F8B5154682680669AA420B46B0
:10117000816938BF8568761AB54204460BD2184695
:101180002A46FFF7A5FDA3692B44A361A3685B1B57
:10119000A3602846F8BD0CD918463246FFF798FDE3
:1011A000AF1BE1683A463044FFF792FDE3683B44E9
:1011B000EBE718462A46FFF78BFDE368E5E70000FA
:1011C00083689342F7B51546044638BF8568D0E971
:1011D0000460361AB5420BD22A46FFF779FD6369DF
:1011E0002B446361A36828465B1BA36003B0F0BD7A
:1011F0000DD932460191FFF76BFD0199E068AF1BF5
:101200003A463144FFF764FDE3683B44E9E72A4688
:10121000FFF75EFDE368E4E710B50A440024C3610C
:10122000029B8460C0E90000C0E90511C160026151
:10123000036210BD08B5D0E90532934201D182683E
:1012400082B98268013282605A1C42611970D0E909
:1012500004329A4224BFC3684361002100F0DAFEE1
:10126000002008BD4FF0FF30FBE7000070B52023E1
:1012700004460E4683F31188A568A5B1A368A26948
:10128000013BA360531CA36115782269934224BFDC
:10129000E368A361E3690BB120469847002383F319
:1012A0001188284607E03146204600F0A3FE0028BA
:1012B000E2DA85F3118870BD2DE9F74F04460E463A
:1012C00017469846D0F81C904FF0200A8AF31188F0
:1012D0004FF0000B154665B12A4631462046FFF710
:1012E00041FF034660B94146204600F083FE0028D6
:1012F000F1D0002383F31188781B03B0BDE8F08F91
:10130000B9F1000F03D001902046C847019B8BF331
:101310001188ED1A1E448AF31188DCE7C0E9051133
:10132000C160C3611144009B8260C0E9000001619B
:1013300003627047F8B504460D461646202383F332
:101340001188A768A7B1A368013BA36063695A1C11
:1013500062611D70D4E904329A4224BFE36863617C
:10136000E3690BB120469847002080F3118807E01D
:101370003146204600F03EFE0028E2DA87F311886D
:10138000F8BD0000D0E905239A4210B501D182686A
:101390007AB98268013282605A1C82611C780369C2
:1013A0009A4224BFC3688361002100F033FE2046C7
:1013B00010BD4FF0FF30FBE72DE9F74F04460E4616
:1013C00017469846D0F81C904FF0200A8AF31188EF
:1013D0004FF0000B154665B12A4631462046FFF70F
:1013E000EFFE034660B94146204600F003FE0028A8
:1013F000F1D0002383F31188781B03B0BDE8F08F90
:10140000B9F1000F03D001902046C847019B8BF330
:101410001188ED1A1E448AF31188DCE702684368DC
:101420001143016003B11847704700001430FFF703
:1014300043BF00004FF0FF331430FFF73DBF000003
:101440003830FFF7B9BF00004FF0FF333830FFF7F7
:10145000B3BF00001430FFF709BF00004FF0FF31A9
:101460001430FFF703BF00003830FFF763BF000000
:101470004FF0FF323830FFF75DBF000000207047AB
:10148000FFF7E6BD37B515460E4A026000224260FE
:10149000C0E902220122044602740B46009000F1CA
:1014A0005C014FF480721430FFF7B6FE00942B46B7
:1014B0004FF4807204F5AE7104F13800FFF72EFF8F
:1014C00003B030BD143B000810B52023044683F35D
:1014D0001188FFF7CFFD02232374002383F31188C3
:1014E00010BD000038B5C36904460D461BB9042180
:1014F0000844FFF793FF294604F11400FFF79AFE12
:10150000002806DA201D4FF48061BDE83840FFF75F
:1015100085BF38BD026843681143016003B11847B5
:101520007047000013B5446BD4F894341A681178EE
:10153000042915D1217C022912D11979128901239C
:101540008B4013420CD101A904F14C0001F026FF9D
:10155000D4F89444019B21790246206800F0CEF92A
:1015600002B010BD143001F0A9BE00004FF0FF33EF
:10157000143001F0A3BE00004C3001F07BBF00002E
:101580004FF0FF334C3001F075BF0000143001F014
:1015900077BE00004FF0FF31143001F071BE000043
:1015A0004C3001F047BF00004FF0FF324C3001F0EB
:1015B00041BF00000020704710B5D0F894341A687D
:1015C00011780429044617D1017C022914D15979D4
:1015D000528901238B4013420ED1143001F00AFED0
:1015E000024648B1D4F894444FF48073617920687E
:1015F000BDE8104000F070B910BD0000406BFFF76F
:10160000DBBF0000704700007FB5124B0360002372
:101610004360C0E90233012502260F4B05740446DE
:101620000290019300F18402294600964FF48073E2
:10163000143001F0BBFD094B0294CDE9006304F5C1
:1016400023724FF48073294604F14C0001F082FEAE
:1016500004B070BD3C3B0008FD15000825150008CE
:101660000B68202282F311880A7903EB82029061D1
:101670004A79093243F822008A7912B103EB8203D6
:10168000986102230374C0F89414002383F3118833
:101690007047000038B5037F044613B190F854300A
:1016A000ABB9201D01250221FFF734FF04F114001E
:1016B00025776FF0010100F0B9FC84F8545004F173
:1016C0004C006FF00101BDE8384000F0AFBC38BD00
:1016D00010B5012104460430FFF71CFF00232377D7
:1016E00084F8543010BD000038B50446002514308D
:1016F00001F074FD04F14C00257701F043FE201D3C
:1017000084F854500121FFF705FF2046BDE838401A
:10171000FFF752BF90F8443003F06003202B07D14D
:1017200090F84520212A4FF0000303D81F2A06D83D
:1017300000207047222AFBD1C0E90E3303E0034AA0
:1017400082630722C26303640120704711220020D4
:1017500037B5D0F894341A681178042904461AD1A0
:10176000017C022917D11979128901238B40134278
:1017700011D100F14C05284601F0C4FE58B101A971
:10178000284601F00BFED4F89444019B21790246CF
:10179000206800F0B3F803B030BD0000F0B500EBF6
:1017A000810385B09E6904460D46FEB1202383F374
:1017B000118804EB8507301D0821FFF7ABFEFB689D
:1017C0005B691B6806F14C001BB1019001F0F4FD50
:1017D000019803A901F0E2FD024648B1039B2946A6
:1017E000204600F08BF8002383F3118805B0F0BD8C
:1017F000FB685A691268002AF5D01B8A013B134026
:10180000F1D104F14402EAE7093138B550F821403A
:10181000DCB1202383F31188D4F89424136852791F
:1018200003EB8203DB689B695D6845B104216018A6
:10183000FFF770FE294604F1140001F0E5FC204694
:10184000FFF7BAFE002383F3118838BD704700000C
:1018500001F0A8B8012303700023C0E90133C3617C
:1018600083620362C36243620363704738B5044610
:10187000202383F311880025C0E90355C0E90555ED
:10188000416001F09FF80223237085F3118838BD71
:1018900070B500EB810305465069DA600E461446C8
:1018A00018B110220021FFF739FAA06918B11022EF
:1018B0000021FFF733FA31462846BDE8704001F0B9
:1018C0004BB90000826802F0011282600022C0E978
:1018D0000422826101F0CCB9F0B400EB81044789A5
:1018E000E4680125A4698D403D43458123600023C0
:1018F000A2606360F0BC01F0E7B90000F0B400EB57
:1019000081040789E468012564698D403D430581B0
:1019100023600023A2606360F0BC01F061BA0000A4
:1019200070B50223002504460370C0E90255C0E9E2
:101930000455C564856180F8345001F0A9F86368E6
:101940001B6823B129462046BDE87040184770BD8A
:10195000037880F850300523037043681B6810B586
:1019600004460BB1042198470023A36010BD00007A
:1019700090F85020436802701B680BB1052118478E
:101980007047000070B590F83430044613B100235E
:1019900080F8343004F14402204601F08BF963688A
:1019A0009B68B3B994F8443013F0600535D000213A
:1019B000204601F0DDFB0021204601F0CFFB6368EB
:1019C0001B6813B1062120469847062384F834305B
:1019D00070BD204698470028E4D0B4F84A30E26B46
:1019E0009A4288BFE36394F94430E56B002B4FF0D3
:1019F000200380F20381002D00F0F280092284F898
:101A0000342083F311880021D4E90E232046FFF708
:101A100075FF002383F31188DAE794F8452003F07B
:101A20007F0343EA022340F20232934200F0C58072
:101A300021D8B3F5807F48D00DD8012B3FD0022BA1
:101A400000F09380002BB2D104F14C02A263022279
:101A5000E2632364C1E7B3F5817F00F09B80B3F5B7
:101A6000407FA4D194F84630012BA0D1B4F84C307B
:101A700043F0020332E0B3F5006F4DD017D8B3F551
:101A8000A06F31D0A3F5C063012B90D8636894F8A0
:101A900046205E6894F84710B4F848302046B047B6
:101AA000002884D04368A3630368E3631AE0B3F5B6
:101AB000106F36D040F6024293427FF478AF5C4B11
:101AC000A3630223E3630023C3E794F84630012BAA
:101AD0007FF46DAFB4F84C3023F00203C4E90E5527
:101AE000A4F84C30256478E7B4F84430B3F5A06F1F
:101AF0000ED194F8463084F84E30204601F020F89C
:101B000063681B6813B101212046984703232370A3
:101B10000023C4E90E339CE704F14F03A3630123C0
:101B2000C3E72378042B10D1202383F311882046A8
:101B3000FFF7C8FE85F311880321636884F84F50CE
:101B400021701B680BB12046984794F84630002B53
:101B5000DED084F84F300423237063681B68002BA9
:101B6000D6D0022120469847D2E794F848301D0687
:101B700003F00F0120460AD501F08EF8012804D0A9
:101B800002287FF414AF2B4B9AE72B4B98E701F018
:101B900075F8F3E794F84630002B7FF408AF94F81B
:101BA000483013F00F01B3D01A06204602D501F0D9
:101BB000F3FAADE701F0E6FAAAE794F84630002B15
:101BC0007FF4F5AE94F8483013F00F01A0D01B0657
:101BD000204602D501F0CCFA9AE701F0BFFA97E768
:101BE000142284F8342083F311882B462A46294690
:101BF0002046FFF771FE85F31188E9E65DB11522F5
:101C000084F8342083F311880021D4E90E23204680
:101C1000FFF762FEFDE60B2284F8342083F311887F
:101C20002B462A4629462046FFF768FEE3E700BF19
:101C30006C3B0008643B0008683B000838B590F82E
:101C400034300446002B3ED0063BDAB20F2A34D89B
:101C50000F2B32D8DFE803F037313108223231312F
:101C60003131313131313737C56BB0F84A309D42AF
:101C700014D2C3681B8AB5FBF3F203FB12556DB98E
:101C8000202383F311882B462A462946FFF736FE88
:101C900085F311880A2384F834300EE0142384F885
:101CA0003430202383F3118800231A461946204636
:101CB000FFF712FE002383F3118838BD036C03B1D4
:101CC00098470023E7E70021204601F051FA002160
:101CD000204601F043FA63681B6813B106212046D1
:101CE00098470623D7E7000010B590F83430142B3E
:101CF000044629D017D8062B05D001D81BB110BD3A
:101D0000093B022BFBD80021204601F031FA0021CB
:101D1000204601F023FA63681B6813B106212046B0
:101D20009847062319E0152BE9D10B2380F83430AE
:101D3000202383F3118800231A461946FFF7DEFD9E
:101D4000002383F31188DAE7C3689B695B68002B83
:101D5000D5D1036C03B19847002384F83430CEE723
:101D6000024B0022C3E900339A607047102600201E
:101D7000002303748268054B1B6899689142FBD26B
:101D80005A68036042601060586070471026002057
:101D900008B5202383F31188037C032B05D0042B83
:101DA0000DD02BB983F3118808BD436900221A6056
:101DB0004FF0FF334361FFF7DBFF0023F2E7D0E989
:101DC000003213605A60F3E7002303748268054B06
:101DD0001B6899689142FBD85A68036042601060A2
:101DE0005860704710260020054B19690874186860
:101DF00002681A605360186101230374FEF786BA03
:101E00001026002030B54B1C0B4D87B0044610D077
:101E10002B690A4A01A800F025F92046FFF7E4FFE4
:101E2000049B13B101A800F059F92B69586907B058
:101E300030BDFFF7D9FFF8E710260020911D0008FC
:101E400038B50C4D41612B6981689A68914204460E
:101E500003D8BDE83840FFF78BBF1846FFF7B4FF43
:101E600001232C61014623742046BDE83840FEF76B
:101E70004DBA00BF10260020044B1A681B699068F9
:101E80009B68984294BF00200120704710260020D4
:101E900010B5084C236820691A682260546001223A
:101EA00023611A74FFF790FF01462069BDE81040D6
:101EB000FEF72CBA1026002008B5FFF7DDFF18B199
:101EC000BDE80840FFF7E4BF08BD0000FFF7E0BF32
:101ED000FEE7000010B50C4CFFF742FF00F0B4F82D
:101EE0000A498022204600F03BF8012344F8180CF0
:101EF000037400F071FC002383F3118862B6044878
:101F0000BDE8104000F04CB838260020703B0008B7
:101F1000803B000800F01CB9EFF3118020B9EFF30B
:101F20000583202282F311887047000010B530B974
:101F3000EFF30584C4F3080414B180F3118810BDD5
:101F4000FFF7BAFF84F31188F9E70000034A5168EC
:101F500053685B1A9842FBD8704700BF001000E03E
:101F600082600222028270478368A3F17C0243F8F8
:101F70000C2C026943F83C2C426943F8382C074A80
:101F800043F81C2CC26843F8102C022203F8082CDA
:101F9000002203F8072CA3F118007047250300085E
:101FA00010B5202383F31188FFF7DEFF00210446DC
:101FB000FFF746FF002383F31188204610BD000081
:101FC000024B1B6958610F20FFF70EBF102600203F
:101FD000202383F31188FFF7F3BF000008B5014603
:101FE000202383F311880820FFF70CFF002383F3DD
:101FF000118808BD49B1064B42681B6918605A60D8
:10200000136043600420FFF7FDBE4FF0FF307047C0
:10201000102600200368984206D01A6802605060BB
:1020200059611846FFF7A4BE7047000038B5044652
:102030000D462068844200D138BD036823605C608F
:102040004561FFF795FEF4E7054B03F11402C3E980
:1020500005224FF0FF310022C3E90712704700BF8D
:102060001026002070B51C4EC0E9032305460C461F
:1020700001F07AFA334653F8142F9A420DD13062A8
:10208000C5E901242A600A2C2CBF00190A30C6E9D0
:102090000555BDE8704001F055BA316A431AE3189E
:1020A00038BF1C469368A34202D9081901F058FAB8
:1020B00073699A6894420CD85A68AC602B606A6065
:1020C00015609A685D60121B9A604FF0FF33F361F0
:1020D00070BD1B68A41AECE71026002038B51B4C15
:1020E000636998420DD0D0E9003213605A60002233
:1020F0008168C2609A680A449A604FF0FF33E361D6
:1021000038BD2246036842F8143F002193425A60CA
:10211000C16003D1BDE8384001F01CBA9A688168FB
:10212000256A0A449A6001F01FFA63699A68411BA4
:102130008A42E5D9AB181D1A092D206A98BF01F112
:102140000A02BDE83840104401F00ABA1026002007
:102150002DE9F041184C002704F11406656901F0DF
:1021600003FA236AAA68C11A8A4215D81344236263
:10217000D5E9003213605A606369D5F80C80EF60CE
:10218000B34201D101F0E6F987F311882869C0470D
:10219000202383F31188E1E76169B14209D0134438
:1021A0001B1ABDE8F0410A2B2CBFC0180A3001F001
:1021B000D7B9BDE8F08100BF10260020002070478D
:1021C000FEE70000704700004FF0FF30704700004E
:1021D00002290CD0032904D00129074818BF002088
:1021E0007047032A05D8054800EBC2007047044831
:1021F00070470020704700BF643C00082022002088
:10220000183C000870B59AB00546084601A9144666
:1022100000F0C2F801A8FEF779FD431C5B00C5E998
:1022200000340022237003236370C6B201AB023472
:102230001046D1B28E4204F1020401D81AB070BD2A
:1022400013F8011B04F8021C04F8010C0132F0E73A
:1022500008B5202383F311880348FFF779FA002398
:1022600083F3118808BD00BFC827002090F84430D0
:1022700003F01F02012A07D190F845200B2A03D151
:102280000023C0E90E3315E003F06003202B08D1D2
:10229000B0F848302BB990F84520212A03D81F2ADE
:1022A00004D8FFF737BA222AEBD0FAE7034A826351
:1022B0000722C26303640120704700BF1822002078
:1022C00007B5052917D8DFE801F0191603191920F9
:1022D000202383F31188104A01900121FFF7D8FAD7
:1022E00001980E4A0221FFF7D3FA0D48FFF7FCF9D7
:1022F000002383F3118803B05DF804FB202383F3EC
:1023000011880748FFF7C6F9F2E7202383F3118805
:102310000348FFF7DDF9EBE7B83B0008DC3B0008BA
:10232000C827002038B50C4D0C4C0D492A4604F145
:102330000800FFF767FF05F1CA0204F11000094920
:10234000FFF760FF05F5CA7204F118000649BDE801
:102350003840FFF757BF00BF902C002020220020FC
:10236000983B0008A23B0008AD3B000870B504464E
:1023700008460D46FEF7CAFCC6B220460134037873
:102380000BB9184670BD32462946FEF7ABFC002853
:10239000F3D10120F6E700002DE9F84F05460C4681
:1023A000FEF7B4FC2B49C6B22846FFF7DFFF08B1A1
:1023B0000536F6B228492846FFF7D8FF08B110368F
:1023C000F6B2632E0DD8DFF88C80DFF88C90234FA7
:1023D000DFF890A0DFF890B02E7846B92670BDE8FF
:1023E000F88F29462046BDE8F84F01F04FBB252E57
:1023F0002BD1072241462846FEF774FC58B9DBF87A
:1024000000302360DBF804306360DBF80830A36041
:1024100007350C34E0E7082249462846FEF762FCFF
:1024200098B90F4BA21C197809090232C95D02F84C
:10243000041C13F8011B01F00F015345C95D02F89C
:10244000031CF0D118340835C6E704F8016B0135D8
:10245000C2E700BF843C0008AD3B0008993C00087F
:10246000107AFF1F1C7AFF1F8C3C0008BFF34F8FB0
:10247000024AD368DB03FCD4704700BF003C024033
:1024800008B5094B1B7873B9FFF7F0FF074B1A69C2
:10249000002ABFBF064A5A6002F188325A601A68A1
:1024A00022F480621A6008BDEE2E0020003C02403B
:1024B0002301674508B50B4B1B7893B9FFF7D6FF8F
:1024C000094B1A6942F000421A611A6842F48052BC
:1024D0001A601A6822F480521A601A6842F4806204
:1024E0001A6008BDEE2E0020003C02400B28F0B51B
:1024F00016D80C4C0C4923787BB90C4D0E460C2396
:102500004FF0006255F8047B46F8042B013B13F0B2
:10251000FF033A44F6D10123237051F82000F0BDA7
:102520000020FCE7202F0020F02E0020AC3C00080B
:10253000014B53F820007047AC3C00080C2070475A
:102540000B2810B5044601D9002010BDFFF7CEFFBF
:10255000064B53F824301844C21A0BB90120F4E793
:1025600012680132F0D1043BF6E700BFAC3C000832
:102570000B2838B5044628D8FFF7CEFCFFF776FFC6
:10258000FFF77EFF124AF323D360E300DBB243F48C
:10259000007343F002031361136943F48033136142
:1025A00005462046FFF762FFFFF7A0FF094B53F8EF
:1025B000241000F0E9F82846FFF77CFFFFF7B6FC8F
:1025C0002046BDE83840FFF7BBBF002038BD00BF44
:1025D000003C0240AC3C000812F001032DE9F04140
:1025E00005460E4614464BD18218B2F1016F61D8F0
:1025F000314B1B6813F001035CD0304FFFF78CFCAC
:10260000FFF73EFFF323FB60FFF730FF314640F258
:102610000128032C18D824F00104284E0C446D1A0C
:1026200040F20118A142336905EB01072AD123F0DA
:1026300001033361FFF73EFFFFF778FC0120BDE89F
:10264000F081043C0435E4E7AB07E4D13B6923F4B3
:1026500040733B613B6943EA08033B6151F8046BFB
:102660002E60BFF34F8FFFF701FF2B689E42E8D02B
:102670003B6923F001033B61FFF71CFFFFF756FCAA
:102680000020DCE723F440733361336943EA080335
:1026900033610B883B80BFF34F8FFFF7E7FE3F8826
:1026A00031F8023BBFB2BB42BCD0336923F0010317
:1026B0003361E1E71846C2E700380240003C0240BF
:1026C000084908B50B7828B11BB9FFF7D9FE0123DB
:1026D0000B7008BD002BFCD0BDE808400870FFF768
:1026E000E9BE00BFEE2E002010B50244064BD2B268
:1026F000904200D110BD441C00B253F8200041F8B4
:10270000040BE0B2F4E700BF502800400F4B30B597
:102710001C6F240407D41C6F44F400741C671C6FE6
:1027200044F400441C670A4C236843F4807323601C
:102730000244084BD2B2904200D130BD441C00B2DA
:1027400051F8045B43F82050E0B2F4E7003802404F
:10275000007000405028004007B5012201A9002068
:10276000FFF7C2FF019803B05DF804FB13B5044600
:10277000FFF7F2FFA04205D0012201A90020019439
:10278000FFF7C4FF02B010BD70470000034B1A688A
:102790001AB9034AD2F874281A607047242F00200F
:1027A0000030024008B5FFF7F1FF024B1868C0F394
:1027B000407008BD242F0020EFF3098305494A6BC0
:1027C00022F001024A63683383F30988002383F30C
:1027D0001188704700EF00E0202080F3118862B676
:1027E0000C4B0D4AD96821F4E0610904090C0A4335
:1027F000DA60D3F8FC20094942F08072C3F8FC206B
:102800000A6842F001020A601022DA7783F8220097
:10281000704700BF00ED00E00003FA05001000E083
:1028200010B5202383F311880E4B5B6813F400630B
:1028300014D0F1EE103AEFF30984683C4FF0807346
:10284000E361094BDB6B236684F30988FFF714FB14
:1028500010B1064BA36110BD054BFBE783F3118854
:10286000F9E700BF00ED00E000EF00E037030008EB
:102870003A03000870470000FEE700000A4B0B48CF
:102880000B4A90420BD30B4BDA1C121AC11E22F0DA
:1028900003028B4238BF00220021FEF73FBA53F8F3
:1028A000041B40F8041BECE7483E000820300020E1
:1028B00020300020203000207047000070B5D0E9A3
:1028C00015439E6800224FF0FF3504EB421351017F
:1028D000D3F800090028BEBFD3F8000940F08040BB
:1028E000C3F80009D3F8000B0028BEBFD3F8000BD3
:1028F00040F08040C3F8000B013263189642C3F8E1
:102900000859C3F8085BE0D24FF00113C4F81C3833
:1029100070BD00001D4B03EB80022DE9F043D2F89F
:102920000CC05D6DDCF81420461CD2F800E005EB0D
:10293000063605EB4018516871450AD3D5F834388E
:10294000012202FA00F023EA0000C5F83408BDE8CD
:10295000F083BCF81040AEEB0103A34228BF23462E
:10296000D8F81849A4B2B3EB840FF0D89468A4F156
:10297000040959F8047F3760A4EB09071F44042FAA
:10298000F7D81C440B4494605360D4E7282F0020F0
:10299000890141F02001016103699B06FCD41220EA
:1029A000FFF7D4BA10B5054C2046FEF753FF4FF0A1
:1029B000A0436365024BA36510BD00BF282F002014
:1029C000003D000870B50378012B054650D12A4B15
:1029D000446D98421BD1294B5A6B42F080025A63D6
:1029E0005A6D42F080025A655A6D5A6942F080026F
:1029F0005A615A6922F080025A610E2143205B69B4
:102A0000FEF79AFB1E4BE3601E4BC4F80038002310
:102A1000C4F8003EC02323606E6D4FF40413A3631B
:102A20003369002BFCDA012333610C20FFF78EFAA7
:102A30003369DB07FCD41220FFF788FA3369002BD7
:102A4000FCDA0026A6602846FFF738FF6B68C4F85A
:102A50001068DB68C4F81468C4F81C684BB90A4BEA
:102A6000A3614FF0FF336361A36843F00103A360E8
:102A700070BD064BF4E700BF282F0020003802404D
:102A80004014004003002002003C30C0083C30C02D
:102A9000F8B5446D054600212046FFF779FFA96D82
:102AA00000234FF001128F68C4F834384FF00066ED
:102AB000C4F81C284FF0FF3004EB431201339F424F
:102AC000C2F80069C2F8006BC2F80809C2F8080B26
:102AD000F2D20B686A6DEB656362102313611669AD
:102AE00016F01006FBD11220FFF730FAD4F80038A8
:102AF00023F4FE63C4F80038A36943F4402343F091
:102B00001003A3610923C4F81038C4F814380A4B21
:102B1000EB604FF0C043C4F8103B084BC4F8003BD7
:102B2000C4F81069C4F80039EB6D03F1100243F4E6
:102B30008013EA65A362F8BDDC3C00084080001009
:102B4000426D90F84E10D2F8003823F4FE6343EA49
:102B50000113C2F8003870472DE9F84300EB8103F8
:102B6000456DDA68166806F00306731E022B05EB46
:102B700041130C4680460FFA81F94FEA41104FF09D
:102B80000001C3F8101B4FF0010104F1100398BFBE
:102B9000B60401FA03F391698EBF334E06F18056F5
:102BA00006F5004600293AD0578A04F15801490138
:102BB00037436F50D5F81C180B43C5F81C382B1839
:102BC0000021C3F8101953690127611EA7409BB368
:102BD000138A928B9B08012A88BF5343D8F85C2044
:102BE000981842EA034301F1400205EB8202C8F85B
:102BF0005C00214653602846FFF7CAFE08EB8900B7
:102C0000C3681B8A43EA8453483464011E432E512F
:102C1000D5F81C381F43C5F81C78BDE8F88305EBD0
:102C20004917D7F8001B21F40041C7F8001BD5F85D
:102C30001C1821EA0303C0E704F13F0305EB8303FB
:102C40000A4A5A6028462146FFF7A2FE05EB4910C2
:102C5000D0F8003923F40043C0F80039D5F81C3807
:102C600023EA0707D7E700BF008000100004000236
:102C7000826D1268C265FFF721BE00005831436DB6
:102C800049015B5813F4004004D013F4001F0CBF3B
:102C900002200120704700004831436D49015B5814
:102CA00013F4004004D013F4001F0CBF02200120D5
:102CB0007047000000EB8101CB68196A0B68136054
:102CC0004B6853607047000000EB810330B5DD684E
:102CD000AA691368D36019B9402B84BF40231360DD
:102CE0006B8A1468426D1C44013CB4FBF3F46343EB
:102CF000033323F0030302EB411043EAC44343F0E0
:102D0000C043C0F8103B2B6803F00303012B09B24A
:102D10000ED1D2F8083802EB411013F4807FD0F8BE
:102D2000003B14BF43F0805343F00053C0F8003B16
:102D300002EB4112D2F8003B43F00443C2F8003BDF
:102D400030BD00002DE9F041244D6E6D06EB4013BF
:102D50000446D3F8087BC3F8087B38070AD5D6F8B1
:102D60001438190706D505EB84032146DB6828468D
:102D70005B689847FA071FD5D6F81438DB071BD5D0
:102D800005EB8403D968CCB98B69488A5A68B2FBD1
:102D9000F0F600FB16228AB91868DA6890420DD264
:102DA000121AC3E90024202383F311880B4821461B
:102DB000FFF78AFF84F31188BDE8F081012303FA4D
:102DC00004F26B8923EA02036B81CB68002BF3D0FA
:102DD00021460248BDE8F041184700BF282F0020D7
:102DE00000EB810370B5DD68436D6C692668E660B1
:102DF0004A0156BB1A444FF40020C2F810092A6851
:102E000002F00302012A0AB20ED1D3F8080803EB3C
:102E1000421410F4807FD4F8000914BF40F08050B1
:102E200040F00050C4F8000903EB4212D2F8000948
:102E300040F00440C2F80009D3F83408012202FA35
:102E400001F10143C3F8341870BD19B9402E84BF95
:102E50004020206020682E8A8419013CB4FBF6F4DF
:102E600040EAC44040F000501A44C6E7F8B50446B2
:102E70001E48456D05EB4413D3F80869C3F808698B
:102E8000F10717D5D5F81038DA0713D500EB84030E
:102E9000D9684B691F68DA68974218D2D21B00279D
:102EA0001A605F60202383F311882146FFF798FFA3
:102EB00087F31188330617D5D5F834280123A340AA
:102EC000134211D02046BDE8F840FFF723BD01238F
:102ED00003FA04F2038923EA020303818B68002BBF
:102EE000E8D021469847E5E7F8BD00BF282F00202D
:102EF0002DE9F74F984C666D7569B3691D4015F45F
:102F00008058756107D02046FEF70AFD03B0BDE882
:102F1000F04FFFF785BC002D12DAD6F8003E8E4840
:102F20009F071EBFD6F8003E23F00303C6F8003EFD
:102F3000D6F8043823F00103C6F80438FEF718FD6C
:102F4000280505D58448FFF7B9FC8348FEF700FD46
:102F5000A9040CD5D6F8083813F0060FF36823F44B
:102F600070530CBF43F4105343F4A053F3602A078B
:102F700004D56368DB680BB177489847EB0274D4DB
:102F8000AF0227D5D4F85490DFF8CCB100274FF02A
:102F9000010A09EB4712D2F8003B03F44023B3F5D2
:102FA000802F11D1D2F8003B002B0DDA62890AFA8A
:102FB00007F322EA0303638104EB8703DB68DB6822
:102FC00013B1394658469847A36D01379B68FFB245
:102FD0009F42DED9E80617D5676D3A6AC2F30A1038
:102FE00002F00F0302F4F012B2F5802F00F0888097
:102FF000B2F5402F08D104EB83030022DB681B6A83
:1030000007F5805790426DD12903D6F8184813D59B
:10301000E20302D50020FFF795FEA30302D50120AD
:10302000FFF790FE670302D50220FFF78BFE260311
:1030300002D50320FFF786FE6D037FF567AFE0073B
:1030400002D50020FFF712FFA10702D50120FFF7EC
:103050000DFF620702D50220FFF708FF23077FF567
:1030600055AF0320FFF702FF50E7636DDFF8E8B0CC
:10307000019300274FF0010AA36D9B685FFA87F95F
:1030800099453FF67DAF019B03EB4913D3F8002927
:1030900002F44022B2F5802F22D1D3F80029002A71
:1030A0001EDAD3F8002942F09042C3F80029D3F881
:1030B0000029002AFBDB606D4946FFF769FC228985
:1030C0000AFA09F322EA0303238104EB8903DB688C
:1030D0009B6813B14946584698474846FFF71AFC83
:1030E0000137C9E7910708BFD7F80080072A98BFC2
:1030F00003F8018B02F1010298BF4FEA182881E71B
:10310000023304EB830207F580575268D2F818C0E7
:10311000DCF80820DCE9001CA1EB0C0C0021884243
:103120000AD104EB830463689B699A6802449A603D
:103130005A6802445A6067E711F0030F08BFD7F8D6
:1031400000808C4588BF02F8018B01F1010188BF26
:103150004FEA1828E3E700BF282F0020436D03EB58
:103160004111D1F8003B43F40013C1F8003B704714
:10317000436D03EB4111D1F8003943F40013C1F85A
:1031800000397047436D03EB4111D1F8003B23F444
:103190000013C1F8003B7047436D03EB4111D1F8B8
:1031A000003923F40013C1F80039704730B5039C8F
:1031B0000172043304FB0325C0E90653049B036337
:1031C0000021059BC160C0E90000C0E90422C0E9FC
:1031D0000842C0E90A11436330BD0000416A002281
:1031E000C0E90411C0E90A22C2606FF00101FEF7D4
:1031F0001DBF0000D0E90432934201D1C2680AB970
:10320000181D70470020704703691960C2680132B9
:10321000C260C269134482690361934224BF436A56
:1032200003610021FEF7F6BE38B504460D46E3689B
:103230003BB16269131D1268A3621344E36200206C
:1032400007E0237A33B929462046FEF7D3FE00284B
:10325000EDDA38BD6FF00100FBE70000C368C2691A
:10326000013BC3604369134482694361934224BFB5
:10327000436A436100238362036B03B118477047BD
:1032800070B52023044683F31188866A3EB9FFF7A0
:10329000CBFF054618B186F31188284670BDA36A96
:1032A000E26A13F8015BA362934202D32046FFF760
:1032B000D5FF002383F31188EFE700002DE9F84FD5
:1032C00004460E46174698464FF0200989F31188A8
:1032D0000025AA46D4F828B0BBF1000F09D1414619
:1032E0002046FFF7A1FF20B18BF311882846BDE8E7
:1032F000F88FD4E90A12A7EB050B521A934528BFA1
:103300009346BBF1400F1BD9334601F1400251F8FF
:10331000040B43F8040B9142F9D1A36A40334036C1
:10332000A3624035D4E90A239A4202D32046FFF72C
:1033300095FF8AF31188BD42D8D289F31188C9E775
:1033400030465A46FDF7C4FCA36A5B445E44A36260
:103350005D44E7E710B5029C0172043304FB0321CE
:10336000C0E906130023C0E90A33039B0363049BEF
:10337000C460C0E90000C0E90422C0E90842436318
:1033800010BD0000026AC260426AC0E90422002245
:10339000C0E90A226FF00101FEF748BED0E904231C
:1033A0009A4201D1C26822B9184650F8043B0B601A
:1033B0007047002070470000C368C2690133C360D2
:1033C0004369134482694361934224BF436A436162
:1033D0000021FEF71FBE000038B504460D46E36825
:1033E0003BB123691A1DA262E2691344E362002023
:1033F00007E0237A33B929462046FEF7FBFD002873
:10340000EDDA38BD6FF00100FBE7000003691960D9
:10341000C268013AC260C26913448269036193427F
:1034200024BF436A036100238362036B03B118471F
:103430007047000070B520230D460446114683F303
:103440001188866A2EB9FFF7C7FF10B186F311887D
:1034500070BDA36A1D70A36AE26A01339342A3623E
:1034600004D3E16920460439FFF7D0FF002080F340
:103470001188EDE72DE9F84F04460D469046994630
:103480004FF0200A8AF311880026B346A76A4FB985
:1034900049462046FFF7A0FF20B187F31188304648
:1034A000BDE8F88FD4E90A073A1AA8EB0607974255
:1034B00028BF1746402F1BD905F1400355F8042BB0
:1034C00040F8042B9D42F9D1A36A4033A3624036F1
:1034D000D4E90A239A4204D3E16920460439FFF76C
:1034E00095FF8BF311884645D9D28AF31188CDE731
:1034F00029463A46FDF7ECFBA36A3B443D44A362F0
:103500003E44E5E7D0E904239A4217D1C3689BB152
:10351000836A8BB1043B9B1A0ED01360C368013BD6
:10352000C360C3691A44836902619A4224BF436A33
:103530000361002383620123184670470023FBE7E1
:1035400000F088B84FF08043002258631A610222CD
:10355000DA6070474FF080430022DA607047000065
:103560004FF08043586370474FF08043586A70476C
:103570004B6843608B688360CB68C3600B694361B1
:103580004B6903628B6943620B68036070470000FC
:1035900008B5264B26481A6940F2FF110A431A6102
:1035A0001A6922F4FF7222F001021A611A691A6B79
:1035B0000A431A631A6D0A431A651E4A1B6D1146A7
:1035C000FFF7D6FF02F11C0100F58060FFF7D0FF86
:1035D00002F1380100F58060FFF7CAFF02F15401E3
:1035E00000F58060FFF7C4FF02F1700100F5806014
:1035F000FFF7BEFF02F18C0100F58060FFF7B8FF16
:1036000002F1A80100F58060FFF7B2FF02F1C401EA
:1036100000F58060FFF7ACFF02F1E00100F580608B
:10362000FFF7A6FFBDE8084000F09AB80038024056
:10363000000002400C3D000808B500F007FAFEF754
:1036400049FCFFF7A3F8BDE80840FEF76BBE000099
:1036500070470000104B1A6C42F001021A641A6E97
:1036600042F001021A660D4A1B6E936843F0010393
:1036700093604FF0804353229A624FF0FF32DA6238
:1036800000229A615A63DA605A6001225A61082165
:103690001A601C20FDF750BD00380240002004E0F5
:1036A0004FF0804208B51169D3680B40D9B2C943C5
:1036B0009B07116107D5202383F31188FEF72AFCAD
:1036C000002383F3118808BD08B5FFF7E9FFBDE8C3
:1036D0000840FFF7A5B800001F4B1A696FEAC252F5
:1036E0006FEAD2521A611A69C2F308021A614FF0E6
:1036F000FF301A695A69586100215A6959615A693B
:103700001A6A62F080521A621A6A02F080521A62D1
:103710001A6A5A6A58625A6A59625A6A1A6C42F0AC
:1037200080521A641A6E42F080521A661A6E0B4A60
:10373000106840F480701060186F00F44070B0F5AD
:10374000007F1EBF4FF4803018671967536823F459
:103750000073536000F05AB9003802400070004016
:10376000334B4FF080521A64324A4FF4404111609B
:103770001A6842F001021A601A689107FCD59A682B
:1037800022F003029A602A4B9A6812F00C02FBD1D5
:10379000196801F0F90119609A601A6842F48032E0
:1037A0001A601A689203FCD55A6F42F001025A67F8
:1037B0001F4B5A6F9007FCD51F4A5A601A6842F097
:1037C00080721A601B4A53685904FCD5184B1A685A
:1037D0009201FCD5194A9A60194B1A68194B9A4202
:1037E000194B21D1194A1168194A91421CD140F252
:1037F00005121A60144A136803F00F03052BFAD15F
:103800000B4B9A6842F002029A609A6802F00C022E
:10381000082AFAD15A6C42F480425A645A6E42F431
:1038200080425A665B6E704740F20572E1E700BF66
:103830000038024000700040085440070094883867
:10384000002004E011640020003C024000ED00E094
:1038500041C20F41084A08B5516913680B4003F093
:103860000103536123B1054A13680BB150689847AF
:10387000BDE80840FEF7D4BF003C0140A02F002067
:10388000084A08B5516913680B4003F002035361FD
:1038900023B1054A93680BB1D0689847BDE808404A
:1038A000FEF7BEBF003C0140A02F0020084A08B52B
:1038B000516913680B4003F00403536123B1054AB7
:1038C00013690BB150699847BDE80840FEF7A8BFDF
:1038D000003C0140A02F0020084A08B55169136838
:1038E0000B4003F00803536123B1054A93690BB100
:1038F000D0699847BDE80840FEF792BF003C014000
:10390000A02F0020084A08B5516913680B4003F046
:103910001003536123B1054A136A0BB1506A9847EB
:10392000BDE80840FEF77CBF003C0140A02F00200E
:10393000174B10B55A691C68144004F478725A6128
:10394000A30604D5134A936A0BB1D06A9847600660
:1039500004D5104A136B0BB1506B9847210604D560
:103960000C4A936B0BB1D06B9847E20504D5094A1A
:10397000136C0BB1506C9847A30504D5054A936CA2
:103980000BB1D06C9847BDE81040FEF749BF00BFAF
:10399000003C0140A02F00201A4B10B55A691C684A
:1039A000144004F47C425A61620504D5164A136D32
:1039B0000BB1506D9847230504D5134A936D0BB195
:1039C000D06D9847E00404D50F4A136E0BB1506ECA
:1039D0009847A10404D50C4A936E0BB1D06E98475A
:1039E000620404D5084A136F0BB1506F9847230443
:1039F00004D5054A936F0BB1D06F9847BDE81040CE
:103A0000FEF70EBF003C0140A02F0020062108B5A4
:103A10000846FDF791FB06210720FDF78DFB0621E7
:103A20000820FDF789FB06210920FDF785FB06210B
:103A30000A20FDF781FB06211720FDF77DFBBDE87D
:103A4000084006212820FDF777BB000008B5FFF7E6
:103A500043FE00F00DF8FDF713FDFDF7F9FEFDF74D
:103A6000D1FDFFF7F5FDBDE80840FFF769BD000097
:103A70000023054A19460133102BC2E9001102F157
:103A80000802F8D1704700BFA02F0020034611F8AC
:103A9000012B03F8012B002AF9D1704753544D3301
:103AA00032463F3F3F00000053544D3332463430DE
:103AB000780053544D3332463432780053544D33EA
:103AC0003246343436585800000000009C3A000852
:103AD0003F00000013040000A83A00083F00000067
:103AE00019040000B23A00083F0000002104000061
:103AF000BC3A00083F000000C8270020A82300208F
:103B0000009600000000000000000000000000001F
:103B100000000000000000004914000835140008EF
:103B2000711400085D140008691400085514000899
:103B3000411400082D1400087D1400080000000046
:103B4000811500086D150008A915000895150008D5
:103B5000A11500088D1500087915000865150008E5
:103B6000B515000800000000010000000000000082
:103B70006D61696E0000000069646C650000000002
:103B8000783B000850260020C827002001000000D4
:103B9000D11E0008000000004172647550696C6F0E
:103BA000740025424F415244252D424C0025534577
:103BB0005249414C250000000200000000000000B6
:103BC0009D1700080918000840004000602C0020E4
:103BD000702C002002000000000000000300000024
:103BE000000000004D180008000000001000000058
:103BF000802C0020000000000100000000000000F8
:103C0000282F002001010200C1220008D121000854
:103C10006D2200085122000843000000203C0008EB
:103C200009024300020100C032090400000102023F
:103C300001000524001001052401000104240202F2
:103C40000524060001070582030800FF090401009E
:103C5000020A00000007050102400000070581027A
:103C600040000000120000006C3C0008120110012E
:103C70000200004009124157000201020301000046
:103C80000403090425424F41524425004D617465E7
:103C90006B463430352D54450030313233343536AF
:103CA0003738394142434445460000000040000097
:103CB0000040000000400000004000000000010043
:103CC00000000200000002000000020000000200EC
:103CD00000000200000002000000020000000000DE
:103CE000851900083D1C0008E91C00084000400040
:103CF000882F0020882F002001000000982F00202E
:103D00008000000040010000030000000001A81630
:103D100000000000AAAAAAAA00001400EF9F000059
:103D20000000000070A70A0000040001000000006D
:103D3000AAAAAAAA00000001DFFF000000000000FC
:103D4000000000000400001400000000AAAAAAAAB3
:103D500004000014FFFF000000000000000000004D
:103D60000000000000000000AAAAAAAA00000000AB
:103D7000FFFF000000000000000000000000000045
:103D800000000000AAAAAAAA00000000FFFF00008D
:103D90000000000000000000000000000000000023
:103DA000AAAAAAAA00000000FFFF0000000000006D
:103DB000000000000000000000000000AAAAAAAA5B
:103DC00000000000FFFF00000000000000000000F5
:103DD00000000000000000000A00000000000000D9
:103DE00003000000000000000000000000000000D0
:103DF00000000000000000000000000000000000C3
:103E000000000000000000001E0400000000000090
:103E100000000F0000000000FF00960000000008F6
:103E2000009600000000080004000000803C00082C
:103E30000000000000000000000000000000000082
:103E40000000000000000000FFFFFFFFFFFFFFFF7A
:103E5000FFFFFFFFFFFFFFFFFFFFFFFFFFFFFFFF72
:103E6000FFFFFFFFFFFFFFFFFFFFFFFFFFFFFFFF62
:103E7000FFFFFFFFFFFFFFFFFFFFFFFFFFFFFFFF52
:103E8000FFFFFFFFFFFFFFFFFFFFFFFFFFFFFFFF42
:020000040801F1
:10000000000600209912010831E309088DE2090871
:10001000F9E209088DE20908C5E209089B12010806
:100020009B1201089B1201089B120108112F0C085A
:100030009B1201089B1201089B1201089B120108E8
:100040009B1201089B1201089B1201089B120108D8
:100050009B1201089B120108A93A0C08D13A0C081E
:10006000F93A0C08213B0C08493B0C084DDE0B0803
:1000700075DE0B08A1DE0B08CDDE0B08F9DE0B08E0
:1000800021DF0B084DDF0B08D1DD0B089B120108A7
:100090009B1201089B1201089B120108713B0C087E
:1000A000BD3C0C08D13C0C08E53C0C08F93C0C08A4
:1000B000FD3C0C08113D0C08253D0C08D9E40B084B
:1000C00081E60B089B1201089B1201089B12010894
:1000D0009B120108453C0C08593C0C086D3C0C086F
:1000E000D53B0C089B1201089B120108493D0C08E6
:1000F0005D3D0C087D3D0C08813D0C0879DF0B0847
:100100009B1201089B120108393D0C089B12010843
:10011000813C0C08953C0C089B1201089B120108BD
:10012000A5DF0B08CDDF0B08F9DF0B0825E00B0876
:1001300051E00B089B1201089B1201089B12010859
:100140009B1201089B1201089B1201083D360C0806
:1001500079E00B08A5E00B08D1E00B08A93C0C08DE
:100160009B1201089B1201089B1201089B120108B7
:100170009B1201089B1201089B1201089B120108A7
:100180009B1201089B1201089B1201089B12010897
:100190009B1201089B1201089B1201089B12010887
:1001A0009B1201089B1201089B1201089B12010877
:1001B0009B1201089B1201089B1201089B12010867
:1001C0009B1201089B1201089B1201089B12010857
:1001D0009B1201089B1201089B1201089B12010847
:1001E000093401086964010869E80108E536020874
:1001F00069AE0208A1110408F1CE05084D4F0608AA
:1002000081B1060861B9060895BC0608B11B07084C
:100210004539070855C70708D536080811440808A6
:10022000D9D40908BDD9090861C30A08011F0B0800
:1002300091430B084D4F0B08F97C0B0825830B08E5
:1002400081F0004102E000BF83F0004330B54FEA87
:1002500041044FEA430594EA050F08BF90EA020FF4
:100260001FBF54EA000C55EA020C7FEA645C7FEA87
:10027000655C00F0E2804FEA5454D4EB5555B8BFAA
:100280006D420CDD2C4480EA020281EA030382EA1B
:10029000000083EA010180EA020281EA0303362DAD
:1002A00088BF30BD11F0004F4FEA01314FF4801C80
:1002B0004CEA113102D0404261EB410113F0004F92
:1002C0004FEA03334CEA133302D0524263EB430349
:1002D00094EA050F00F0A780A4F10104D5F1200EE7
:1002E0000DDB02FA0EFC22FA05F2801841F1000142
:1002F00003FA0EF2801843FA05F359410EE0A5F116
:1003000020050EF1200E012A03FA0EFC28BF4CF046
:10031000020C43FA05F3C01851EBE37101F00045FC
:1003200007D54FF0000EDCF1000C7EEB00006EEB09
:100330000101B1F5801F1BD3B1F5001F0CD3490893
:100340005FEA30004FEA3C0C04F101044FEA4452EA
:1003500012F5800F80F09A80BCF1004F08BF5FEA71
:10036000500C50F1000041EB045141EA050130BD51
:100370005FEA4C0C404141EB0101013C28BFB1F563
:10038000801FE9D291F0000F04BF01460020B1FAAE
:1003900081F308BF2033A3F10B03B3F120020CDA81
:1003A0000C3208DD02F1140CC2F10C0201FA0CF05F
:1003B00021FA02F10CE002F11402D8BFC2F1200CC4
:1003C00001FA02F120FA0CFCDCBF41EA0C0190407A
:1003D000E41AA2BF01EB0451294330BD6FEA0404C3
:1003E0001F3C1CDA0C340EDC04F11404C4F12002AE
:1003F00020FA04F001FA02F340EA030021FA04F3C0
:1004000045EA030130BDC4F10C04C4F1200220FA16
:1004100002F001FA04F340EA0300294630BD21FA54
:1004200004F0294630BD94F0000F83F4801306BF1A
:1004300081F480110134013D4EE77FEA645C18BF0E
:100440007FEA655C29D094EA050F08BF90EA020FA5
:1004500005D054EA000C04BF1946104630BD91EA9D
:10046000030F1EBF0021002030BD5FEA545C05D1A0
:100470004000494128BF41F0004130BD14F58004DF
:100480003CBF01F5801130BD01F0004545F0FE4153
:1004900041F470014FF0000030BD7FEA645C1ABF88
:1004A000194610467FEA655C1CBF0B46024650EABF
:1004B000013406BF52EA033591EA030F41F40021EB
:1004C00030BD00BF90F0000F04BF0021704730B571
:1004D0004FF4806404F132044FF000054FF0000146
:1004E00050E700BF90F0000F04BF0021704730B507
:1004F0004FF4806404F1320410F0004548BF4042DC
:100500004FF000013EE700BF42004FEAE2014FEA30
:1005100031014FEA02701FBF12F07F4393F07F4F0B
:1005200081F06051704732F07F4208BF704793F00E
:100530007F4F04BF41F40021704730B54FF4607421
:1005400001F0004521F000411CE700BF50EA010224
:1005500008BF704730B54FF000050AE050EA0102CD
:1005600008BF704730B511F0004502D5404261EB3D
:1005700041014FF4806404F132045FEA915C3FF47E
:10058000D8AE4FF003025FEADC0C18BF03325FEA1B
:10059000DC0C18BF033202EBDC02C2F1200300FACC
:1005A00003FC20FA02F001FA03FE40EA0E0021FAF1
:1005B00002F11444BDE600BF70B54FF0FF0C4CF4DF
:1005C000E06C1CEA11541DBF1CEA135594EA0C0F91
:1005D00095EA0C0F00F0DEF82C4481EA030621EACC
:1005E0004C5123EA4C5350EA013518BF52EA033507
:1005F00041F4801143F4801338D0A0FB02CE4FF0B9
:100600000005E1FB02E506F00042E0FB03E54FF0E8
:100610000006E1FB03569CF0000F18BF4EF0010EE0
:10062000A4F1FF04B6F5007F64F5407404D25FEADC
:100630004E0E6D4146EB060642EAC62141EA55518F
:100640004FEAC52040EA5E504FEACE2EB4F1FD0CD1
:1006500088BFBCF5E06F1ED8BEF1004F08BF5FEA4F
:10066000500E50F1000041EB045170BD06F0004601
:1006700046EA010140EA020081EA0301B4EB5C04AE
:10068000C2BFD4EB0C0541EA045170BD41F48011A6
:100690004FF0000E013C00F3AB8014F1360FDEBFCB
:1006A000002001F0004170BDC4F10004203C35DAA7
:1006B0000C341BDC04F11404C4F1200500FA05F32A
:1006C00020FA04F001FA05F240EA020001F00042CB
:1006D00021F0004110EBD37021FA04F642EB060141
:1006E0005EEA430E08BF20EAD37070BDC4F10C046B
:1006F000C4F1200500FA04F320FA05F001FA04F22F
:1007000040EA020001F0004110EBD37041F100011A
:100710005EEA430E08BF20EAD37070BDC4F1200525
:1007200000FA05F24EEA020E20FA04F301FA05F28D
:1007300043EA020321FA04F001F0004121FA04F235
:1007400020EA020000EBD3705EEA430E08BF20EA05
:10075000D37070BD94F0000F0FD101F0004640003F
:1007600041EB010111F4801F08BF013CF7D041EAC1
:10077000060195F0000F18BF704703F000465200C5
:1007800043EB030313F4801F08BF013DF7D043EA96
:100790000603704794EA0C0F0CEA135518BF95EA4C
:1007A0000C0F0CD050EA410618BF52EA4306D1D1D3
:1007B00081EA030101F000414FF0000070BD50EAF2
:1007C000410606BF1046194652EA430619D094EA7C
:1007D0000C0F02D150EA013613D195EA0C0F05D166
:1007E00052EA03361CBF104619460AD181EA0301BA
:1007F00001F0004141F0FE4141F470014FF0000072
:1008000070BD41F0FE4141F4780170BD70B54FF00C
:10081000FF0C4CF4E06C1CEA11541DBF1CEA13558C
:1008200094EA0C0F95EA0C0F00F0A7F8A4EB05046E
:1008300081EA030E52EA03354FEA013100F0888065
:100840004FEA03334FF0805545EA131343EA12632E
:100850004FEA022245EA111545EA10654FEA0026E3
:100860000EF000419D4208BF964244F1FD0404F59C
:10087000407402D25B084FEA3202B61A65EB0305F8
:100880005B084FEA32024FF480104FF4002CB6EBB5
:10089000020E75EB030E22BFB61A754640EA0C0035
:1008A0005B084FEA3202B6EB020E75EB030E22BF75
:1008B000B61A754640EA5C005B084FEA3202B6EBB6
:1008C000020E75EB030E22BFB61A754640EA9C0075
:1008D0005B084FEA3202B6EB020E75EB030E22BF45
:1008E000B61A754640EADC0055EA060E18D04FEA03
:1008F000051545EA16754FEA06164FEAC30343EAA3
:1009000052734FEAC2025FEA1C1CC0D111F4801F6F
:100910000BD141EA00014FF000004FF0004CB6E768
:1009200011F4801F04BF01430020B4F1FD0C88BF07
:10093000BCF5E06F3FF6AFAEB5EB030C04BFB6EB12
:10094000020C5FEA500C50F1000041EB045170BD05
:100950000EF0004E4EEA113114EB5C04C2BFD4EB32
:100960000C0541EA045170BD41F480114FF0000EB6
:10097000013C90E645EA060E8DE60CEA135594EA32
:100980000C0F08BF95EA0C0F3FF43BAF94EA0C0F35
:100990000AD150EA01347FF434AF95EA0C0F7FF4AA
:1009A00025AF104619462CE795EA0C0F06D152EAFE
:1009B00003353FF4FDAE1046194622E750EA4106E2
:1009C00018BF52EA43067FF4C5AE50EA41047FF4F3
:1009D0000DAF52EA43057FF4EBAE12E74FF0FF3C58
:1009E00006E000BF4FF0010C02E000BF4FF0010C29
:1009F0004DF804CD4FEA410C7FEA6C5C4FEA430CA2
:100A000018BF7FEA6C5C1BD001B050EA410C0CBFF0
:100A100052EA430C91EA030F02BF90EA020F002052
:100A2000704710F1000F91EA030F58BF994208BFB9
:100A300090422CBFD8176FEAE37040F00100704776
:100A40004FEA410C7FEA6C5C02D150EA013C07D1CD
:100A50004FEA430C7FEA6C5CD6D152EA033CD3D018
:100A60005DF8040B704700BF8446104662468C4612
:100A70001946634600E000BF01B5FFF7B7FF002845
:100A800048BF10F1000F01BD4DF808EDFFF7F4FF6E
:100A90000CBF012000205DF808FB00BF4DF808EDF9
:100AA000FFF7EAFF34BF012000205DF808FB00BF1C
:100AB0004DF808EDFFF7E0FF94BF012000205DF83E
:100AC00008FB00BF4DF808EDFFF7CEFF94BF0120F3
:100AD00000205DF808FB00BF4DF808EDFFF7C4FFEC
:100AE00034BF012000205DF808FB00BF4FEA410C35
:100AF0007FEA6C5C02D150EA013C0AD14FEA430C18
:100B00007FEA6C5C02D152EA033C02D14FF0000054
:100B100070474FF0010070474FEA410212F5001292
:100B200015D211D56FF47873B3EB625212D94FEA34
:100B3000C12343F0004343EA505311F0004F23FA1E
:100B400002F018BF404270474FF00000704750EA73
:100B5000013005D111F0004008BF6FF00040704730
:100B60004FF00000704700BF4A0011D212F500128A
:100B700011D20DD56FF47873B3EB62520ED44FEAF5
:100B8000C12343F0004343EA505323FA02F0704775
:100B90004FF00000704750EA013002D14FF0FF30B3
:100BA00070474FF0000070474FEA4102B2F1E04356
:100BB00024BFB3F5001CDCF1FE5C0DD901F0004C44
:100BC0004FEAC0024CEA5070B2F1004F40EB830094
:100BD00008BF20F00100704711F0804F21D113F1C0
:100BE0003872BCBF01F00040704741F480114FEAF9
:100BF0005252C2F11802C2F1200C10FA0CF320FA82
:100C000002F018BF40F001004FEAC1234FEAD3239E
:100C100003FA0CFC40EA0C0023FA02F34FEA430308
:100C2000CCE77FEA625307D150EA01331EBF4FF091
:100C3000FE4040F44000704701F0004040F0FE40AC
:100C400040F40000704700BF80F0004002E000BFA9
:100C500081F0004142001FBF5FEA410392EA030FA7
:100C60007FEA226C7FEA236C6AD04FEA1262D2EBF1
:100C70001363C1BFD218414048404140B8BF5B42F6
:100C8000192B88BF704710F0004F40F4000020F08F
:100C90007F4018BF404211F0004F41F4000121F0A5
:100CA0007F4118BF494292EA030F3FD0A2F10102EF
:100CB00041FA03FC10EB0C00C3F1200301FA03F12D
:100CC00000F0004302D5494260EB4000B0F5000F50
:100CD00013D3B0F1807F06D340084FEA310102F10F
:100CE0000102FE2A51D2B1F1004F40EBC25008BFC1
:100CF00020F0010040EA03007047490040EB00008B
:100D0000013A28BFB0F5000FEDD2B0FA80FCACF18B
:100D1000080CB2EB0C0200FA0CF0AABF00EBC250B8
:100D200052421843BCBFD0401843704792F0000FA6
:100D300081F4000106BF80F400000132013BB5E7F9
:100D40004FEA41037FEA226C18BF7FEA236C21D06F
:100D500092EA030F04D092F0000F08BF08467047D4
:100D600090EA010F1CBF0020704712F07F4F04D1A2
:100D7000400028BF40F00040704712F100723CBFB5
:100D800000F50000704700F0004343F0FE4040F4DF
:100D9000000070477FEA226216BF08467FEA23639D
:100DA0000146420206BF5FEA412390EA010F40F488
:100DB000800070474FF0000304E000BF10F00043D4
:100DC00048BF40425FEA000C08BF704743F09643BB
:100DD00001464FF000001CE050EA010208BF7047D6
:100DE0004FF000030AE000BF50EA010208BF70475D
:100DF00011F0004302D5404261EB41015FEA010C72
:100E000002BF84460146002043F0B64308BFA3F169
:100E10008053A3F50003BCFA8CF2083AA3EBC2534B
:100E200010DB01FA02FC634400FA02FCC2F120026A
:100E3000BCF1004F20FA02F243EB020008BF20F0A1
:100E40000100704702F1200201FA02FCC2F1200207
:100E500050EA4C0021FA02F243EB020008BF20EAFC
:100E6000DC7070477BB972B90029BEBF00204FF01B
:100E7000004106E008BF00281CBF6FF000414FF0A2
:100E8000FF3000F007BAADF1080C6DE904CE00297F
:100E900009DB002B1ADB00F095F8DDF804E0DDE952
:100EA000022304B07047404261EB4101002B1BDB81
:100EB00000F088F8DDF804E0DDE9022304B04042E8
:100EC00061EB4101524263EB43037047524263EBD3
:100ED000430300F077F8DDF804E0DDE9022304B015
:100EE000404261EB41017047524263EB430300F023
:100EF00069F8DDF804E0DDE9022304B0524263EB57
:100F00004303704753B94AB9002908BF00281CBFE2
:100F10004FF0FF314FF0FF3000F0BCB9ADF1080CDD
:100F20006DE904CE00F04EF8DDF804E0DDE90223BF
:100F300004B07047430803F05533C01A830803F028
:100F4000333300F03330184400EB101000F00F3052
:100F500000EB002000EB0040000E704707EE900A07
:100F6000F5EEC07AF1EE10FA01D400F00BB8F1EE14
:100F7000677A08B517EE900A00F004F8404261EB7A
:100F8000410108BDD0B5FFF7BFFA0C4B0022064661
:100F90000F46FFF711FBFFF7E7FD0446FFF792FA54
:100FA000074B0022FFF708FB02460B463046394646
:100FB000FFF74AF9FFF7D8FD2146D0BD0000F03D0C
:100FC0000000F0412DE9F047089D04468E46002BB5
:100FD0004DD18A42944669D9B2FA82F252B101FAED
:100FE00002F3C2F1200120FA01F10CFA02FC41EAFD
:100FF000030E94404FEA1C48210CBEFBF8F61FFA82
:101000008CF708FB16E341EA034306FB07F199421C
:101010000AD91CEB030306F1FF3080F01F819942CF
:1010200040F21C81023E63445B1AA4B2B3FBF8F0A9
:1010300008FB103344EA034400FB07F7A7420AD930
:101040001CEB040400F1FF3380F00A81A74240F258
:1010500007816444023840EA0640E41B00261DB1C3
:10106000D4400023C5E900433146BDE8F0878B42F8
:1010700009D9002D00F0EF800026C5E900013046B7
:101080003146BDE8F087B3FA83F6002E4AD18B4291
:1010900002D3824200F2F980841A61EB030301203B
:1010A0009E46002DE0D0C5E9004EDDE702B9FFDE27
:1010B000B2FA82F2002A40F09280A1EB0C014FEAD2
:1010C0001C471FFA8CFE0126200CB1FBF7F307FB2F
:1010D000131140EA01410EFB03F0884208D91CEBD2
:1010E000010103F1FF3802D2884200F2CB8043466F
:1010F000091AA4B2B1FBF7F007FB101144EA01444E
:101100000EFB00FEA64508D91CEB040400F1FF31DC
:1011100002D2A64500F2BB800846A4EB0E0440EACA
:1011200003409CE7C6F12007B34022FA07FC4CEAD3
:10113000030C20FA07F401FA06F31C43F9404FEAC6
:101140001C4900FA06F3B1FBF9F8200C1FFA8CFEDB
:1011500009FB181140EA014108FB0EF0884202FA2F
:1011600006F20BD91CEB010108F1FF3A80F08880F0
:10117000884240F28580A8F102086144091AA4B2AD
:10118000B1FBF9F009FB101144EA014100FB0EFE2E
:101190008E4508D91CEB010100F1FF346CD28E455D
:1011A0006AD90238614440EA0840A0FB0294A1EBEE
:1011B0000E01A142C846A64656D353D05DB1B3EB4B
:1011C000080261EB0E0101FA07F722FA06F3F1407B
:1011D0001F43C5E9007100263146BDE8F087C2F122
:1011E0002003D8400CFA02FC21FA03F3914001439A
:1011F0004FEA1C471FFA8CFEB3FBF7F007FB1036D3
:101200000B0C43EA064300FB0EF69E4204FA02F47E
:1012100008D91CEB030300F1FF382FD29E422DD9D1
:10122000023863449B1B89B2B3FBF7F607FB163306
:1012300041EA034106FB0EF38B4208D91CEB010186
:1012400006F1FF3816D28B4214D9023E6144C91A06
:1012500046EA004638E72E46284605E70646E3E616
:101260001846F8E64B45A9D2B9EB020864EB0C0E20
:101270000138A3E74646EAE7204694E74046D1E72F
:10128000D0467BE7023B614432E7304609E76444DD
:10129000023842E7704700BF02E000F000F8FEE7C6
:1012A00072B6374880F30888364880F30988364894
:1012B0003649086040F20000CCF200004EF634716E
:1012C000CEF200010860BFF34F8FBFF36F8F40F283
:1012D0000000C0F2F0004EF68851CEF20001086026
:1012E000BFF34F8FBFF36F8F4FF00000E1EE100A96
:1012F0004EF63C71CEF200010860062080F314889F
:10130000BFF36F8FB1F062FEB0F0F4FE4FF05530D6
:101310001F491B4A91423CBF41F8040BFAE71D49A3
:10132000184A91423CBF41F8040BFAE71A491B4A9C
:101330001B4B9A423EBF51F8040B42F8040BF8E7EE
:1013400000201849184A91423CBF41F8040BFAE7C3
:10135000B1F040FEB0F022FF144C154DAC4203DA60
:1013600054F8041B8847F9E702F03EF8114C124D7F
:10137000AC4203DA54F8041B8847F9E7B1F028BE01
:1013800000060020002200200000010808ED00E017
:101390000000002000060020F88B0E08002200202C
:1013A000C82B0020C82B0020B0560120E001010806
:1013B0004002010840020108400201082DE9F04FF7
:1013C0002DED108AC1F80CD0C3689D46BDEC108A83
:1013D000BDE8F08F002383F311882846A047002042
:1013E000B0F00EFCFEE7B0F093FA00DFFEE700007D
:1013F00001F0FF01102A2BDB10F0070F08D010F8C6
:10140000013B013A8B422DD010F0070F42B3F6D1C9
:10141000F0B441EA012141EA014122F007047FF0E2
:1014200000070023F0E80256083C85EA010586EA39
:10143000010685FA47F5A3FA87F586FA47F6A5FA75
:1014400087F68EB9EED1F0BC01F0FF0102F0070281
:1014500032B110F8013B013A83EA010313B1F8D12C
:101460000020704701387047002D06BF354603380D
:10147000073815F0010F07D1013015F4807F02BF46
:10148000013015F4C03F0130F0BC0138704700BF97
:1014900010F8012B11F8013B012A28BF9A42F7D01E
:1014A000D01A7047034613F8012B002AFBD1181AF3
:1014B0000138704738B50022002304460D46FFF777
:1014C000EDFA28B920462946BDE8384000F00AB8B0
:1014D000204605F1004100F005F8404261EB410172
:1014E00038BD00BFD0B50C4B002206460F46FFF7B3
:1014F00063F8FFF739FB0446FEF7E4FF074B0022D1
:10150000FFF75AF802460B4630463946FEF79CFE76
:10151000FFF72AFB2146D0BD0000F03D0000F0415E
:101520007FB50391402105467CF0C4FC039A18B9AD
:101530000124204604B070BD134E039296F9363054
:10154000002BF5D060F034FD437A039A53B960F074
:101550002FFD847A039A2CB90C4B402128467CF04D
:10156000B1FCE6E7D6F85039B6F93810B3F90630D1
:101570009942DDDD064B00934021064B28467CF066
:10158000A1FC0024D5E700BFD04B002030B50C08EB
:101590004FB50C083DB50C08F0B50D4691B02021B3
:1015A00004467CF087FC002800F09E804F4E96F9A0
:1015B0003630ABB1D6F85029B6F93830B2F90A1046
:1015C00003F10A02914203DD40F28D32934207DCBF
:1015D000474B2A46202120467CF074FC002081E005
:1015E00096F92530022B05D1424B2A462021204670
:1015F0007CF068FC404FB7F8F83FA3F57A739BB2D4
:1016000041F6583293420ED807F5405796ED197AB5
:10161000D7F8F837D3ED097AB4EEE77AF1EE10FA9D
:1016200003DD364BD5E7364BD3E796ED1A7AD3ED8B
:101630000B7AB4EEE77AF1EE10FAF2DCB6F932305A
:10164000002B01DC2F4BC4E796F8C0200D2A04D8EC
:101650004FF42153D340DB071DD42B480EF0FEFB83
:10166000012806D1D7F8040882F094FFA8B1012818
:101670001CD000212E2204A80391B5F01FFC2349A1
:10168000D7F80008322303AA82F084FB08BB03AB1F
:1016900000931F4B04E01F4B9BE71F4B00931F4B16
:1016A0002A46202120467CF00DFC97E796F8603909
:1016B0006BB11B4819214CF00DF840B11848366940
:1016C00019214CF02DF88642D3DD164BE6E7164B78
:1016D000E4E71649D7F8F807322303AA7FF016FD8E
:1016E0000028D4D011B0F0BD0120FBE7D04B002082
:1016F00058B50C086BB50C08D03B0020A3B50C08FE
:1017000093B50C08BDB50C080C8400204CB60C0831
:1017100050B60C08D2B50C0817B60C08F2B50C0878
:10172000F037002036B60C0827B60C0862B60C0855
:1017300007B5044884F0E8FA00F0010003B05DF852
:1017400004FB00BFAC7300202DE9F043474F044673
:10175000D7F84C0D036899B01B690D469847814630
:1017600014F028FA002180462E220CA80B91B5F027
:10177000A5FB32230BAA4946404613F021FD06463D
:1017800048B93B4A0BAB294620467CF083FD3046E6
:1017900019B0BDE8F083A7F5847069F0A7FAB9F134
:1017A000000F03D1D7F810391A070AD5314811F0C4
:1017B000F9F880B9304A294620467CF06BFD0026B6
:1017C000E5E710F0060FE2D0A7F5005011F0EAF8B7
:1017D00008B92A4AEFE703A9404613F027FB28B1CE
:1017E0009DF80D305B0601D5254AE4E7D7ED157A63
:1017F000F5EEC07AF1EE10FA4FF00003C7DD089362
:1018000009930A930DF1200907AB019305AA06ABD2
:1018100004A9CDF80090404613F0E6FE48462CF0AF
:1018200071FDD7ED157AB4EEE70AF1EE10FA01DB9F
:10183000144AC0E79DED057AF4EEC77AF1EE10FA8E
:1018400001D8114AB7E79DED047AF4EEC77AF1EEBC
:1018500010FA01D80D4AAEE79DED067AF4EEC77A8C
:10186000F1EE10FA93D80A4AA5E700BFD04B00204A
:1018700068B60C08D02B002071B60C0888B60C088E
:10188000AEB60C08BCB60C08D1B60C08E7B60C080E
:10189000FDB60C0808B5064B93F8653D9B0704D5CB
:1018A000044A7CF0F7FC002008BD0120FCE700BFE3
:1018B000D04B002014B70C0870B50C4C0546D4F87A
:1018C0004C0D03685B690E46984710B10124204611
:1018D00070BDA4F5005011F077F804460028F5D14A
:1018E000034A314628467CF0D5FCF0E7D04B002077
:1018F00024B70C082DE9B0463F4DD5F8703D814620
:1019000093F8D3008EB08A4688BB60F051FB20214B
:1019100061F0BEFA70BB012495F8423D03F0140358
:10192000142B05D1354A514648467CF0B3FC0024BF
:10193000514648467DF03EFB002188424FF02E0282
:1019400002A808BF0C460191B5F0B8FAD5F8700DA1
:10195000036801AA1B68322198470546F8B9284A4E
:1019600001AB514648467CF095FC2C4620460EB013
:10197000BDE8B08660F01CFB1F2161F089FA30B130
:10198000204A514648467CF085FC0024C4E760F0BC
:101990000FFBA52161F07CFA0028F1D1BBE7002CF8
:1019A000E4D0D9F808303BB9D9F8003051461B6B68
:1019B000484698470446D9E751464846FFF7ECFDAC
:1019C000514607464846FFF765FF3840C4B25146C6
:1019D0004846FFF7A5FD514604404846FFF76CFF17
:1019E0005146044048467CF07DFC51460440484640
:1019F0007DF0F8FA0440B9E7D04B002052B70C084C
:101A00006AB70C0838B70C0808B5FFF773FF054A2A
:101A100092F8401D60F3041182F8401D024A907153
:101A200008BD00BFD04B0020FD870020F7B505465C
:101A30000F467CF07BFA044678B1022128467CF000
:101A400039FA064648B1154884F05EF9C205C0F37C
:101A50000723C0F3002403D53446204603B0F0BD6D
:101A60009B07F9D50D4884F05DF90D4B03F5F46340
:101A7000D3ED007AF8EEE77A30EE670ADFED097A07
:101A8000B0EEC00AB4EEE70AF1EE10FAE4DD064B60
:101A90003A46022128467CF015FADEE7AC730020B6
:101AA000D06B00200000C84278B70C08F8B5044697
:101AB0000F467CF0B7FC1021054620467CF0FAF971
:101AC00058B12046FFF734FE064630B9044B3A467B
:101AD000102120467CF0F6F935462846F8BD00BFB7
:101AE0008CB70C0870B505460E467CF087F90446A5
:101AF00078B1802128467CF0DDF950B1074B93F88E
:101B0000C53243B1064B3246802128467CF0DAF9D3
:101B10000024204670BD0446FBE700BFD05B0020D8
:101B2000A0B70C0838B50D4D0446D5F8040882F06E
:101B300031FD012810D0D5F8040882F02BFD0228D1
:101B400004D02046BDE838407CF05AB904480EF075
:101B500085F90128F5D138BD0020FCE7D06B0020C5
:101B60000C840020F0B5114C85B0D4F848390093AE
:101B7000D4F84C390193D4F8503902936A46D4F81A
:101B80005439039306460F467DF0C6F9394605469B
:101B900030467CF0F1F994F8403D284060F3C303EF
:101BA000C3F3C00084F8403D05B0F0BDD04B002029
:101BB0002DE9F84306462748DFF8A890DFF8A8800B
:101BC0000F4669F093F80446D9F84C0D03681B6979
:101BD0009847054630B914F0060F03D1D9F8803D77
:101BE000022B09D1394630467CF078FA054618B9FF
:101BF000002488F807400AE039463046FFF7A4FD84
:101C000004460028F4D02DB9012388F80730204677
:101C1000BDE8F883082130467CF04CF90028F3D069
:101C20000D4820F017FC0028EED00C4B93F8C02391
:101C3000B02101FB023203F50053B2F8CE21B3F913
